{
  "_format": "hh-sol-artifact-1",
  "contractName": "RegistarationContract",
  "sourceName": "contracts/ResistrationContract.sol",
  "abi": [
    {
      "inputs": [],
      "stateMutability": "payable",
      "type": "constructor"
    },
    {
      "inputs": [],
      "name": "getVoters",
      "outputs": [
        {
          "internalType": "address[]",
          "name": "",
          "type": "address[]"
        }
      ],
      "stateMutability": "view",
      "type": "function"
    },
    {
      "inputs": [
        {
          "internalType": "address",
          "name": "_voter",
          "type": "address"
        }
      ],
      "name": "registerVoter",
      "outputs": [],
      "stateMutability": "nonpayable",
      "type": "function"
    },
    {
      "inputs": [
        {
          "internalType": "address",
          "name": "_voter",
          "type": "address"
        },
        {
          "internalType": "uint256",
          "name": "_candidateId",
          "type": "uint256"
        }
      ],
      "name": "verifyVoter",
      "outputs": [],
      "stateMutability": "payable",
      "type": "function"
    },
    {
      "inputs": [
        {
          "internalType": "address",
          "name": "",
          "type": "address"
        }
      ],
      "name": "voters",
      "outputs": [
        {
          "internalType": "bool",
          "name": "",
          "type": "bool"
        }
      ],
      "stateMutability": "view",
      "type": "function"
    },
    {
      "inputs": [
        {
          "internalType": "uint256",
          "name": "",
          "type": "uint256"
        }
      ],
      "name": "votersList",
      "outputs": [
        {
          "internalType": "address",
          "name": "",
          "type": "address"
        }
      ],
      "stateMutability": "view",
      "type": "function"
    },
    {
      "stateMutability": "payable",
      "type": "receive"
    }
  ],
  "bytecode": "0x6080604052610b2f806100136000396000f3fe60806040526004361061004e5760003560e01c806338db6dd31461005a57806372ce73ab14610083578063a3ec138d146100c0578063b1b27e79146100fd578063cdd722531461011957610055565b3661005557005b600080fd5b34801561006657600080fd5b50610081600480360381019061007c91906105a8565b610144565b005b34801561008f57600080fd5b506100aa60048036038101906100a5919061060b565b61028d565b6040516100b79190610647565b60405180910390f35b3480156100cc57600080fd5b506100e760048036038101906100e291906105a8565b6102cc565b6040516100f4919061067d565b60405180910390f35b61011760048036038101906101129190610698565b6102ec565b005b34801561012557600080fd5b5061012e6103f1565b60405161013b9190610796565b60405180910390f35b6000808273ffffffffffffffffffffffffffffffffffffffff1673ffffffffffffffffffffffffffffffffffffffff16815260200190815260200160002060009054906101000a900460ff16156101d0576040517f08c379a00000000000000000000000000000000000000000000000000000000081526004016101c790610815565b60405180910390fd5b60016000808373ffffffffffffffffffffffffffffffffffffffff1673ffffffffffffffffffffffffffffffffffffffff16815260200190815260200160002060006101000a81548160ff0219169083151502179055506001819080600181540180825580915050600190039060005260206000200160009091909190916101000a81548173ffffffffffffffffffffffffffffffffffffffff021916908373ffffffffffffffffffffffffffffffffffffffff16021790555050565b6001818154811061029d57600080fd5b906000526020600020016000915054906101000a900473ffffffffffffffffffffffffffffffffffffffff1681565b60006020528060005260406000206000915054906101000a900460ff1681565b60008060008473ffffffffffffffffffffffffffffffffffffffff1673ffffffffffffffffffffffffffffffffffffffff16815260200190815260200160002060009054906101000a900460ff169050600081848460405160240161035393929190610844565b6040516020818303038152906040527fa364eae4000000000000000000000000000000000000000000000000000000007bffffffffffffffffffffffffffffffffffffffffffffffffffffffff19166020820180517bffffffffffffffffffffffffffffffffffffffffffffffffffffffff838183161783525050505090506103ea333030624c4b4060036000629896808861047f565b5050505050565b6060600180548060200260200160405190810160405280929190818152602001828054801561047557602002820191906000526020600020905b8160009054906101000a900473ffffffffffffffffffffffffffffffffffffffff1673ffffffffffffffffffffffffffffffffffffffff168152602001906001019080831161042b575b5050505050905090565b600060606104948a8a8a8a8a8a8a888b6104a3565b91505098975050505050505050565b60008060fd73ffffffffffffffffffffffffffffffffffffffff1663f1d1cf1c86888a8f8f8f8f8c8c6040518a63ffffffff1660e01b81526004016104ef989796959493929190610a14565b60206040518083038185885af115801561050d573d6000803e3d6000fd5b50505050506040513d601f19601f820116820180604052508101906105329190610acc565b9050809150509998505050505050505050565b600080fd5b600073ffffffffffffffffffffffffffffffffffffffff82169050919050565b60006105758261054a565b9050919050565b6105858161056a565b811461059057600080fd5b50565b6000813590506105a28161057c565b92915050565b6000602082840312156105be576105bd610545565b5b60006105cc84828501610593565b91505092915050565b6000819050919050565b6105e8816105d5565b81146105f357600080fd5b50565b600081359050610605816105df565b92915050565b60006020828403121561062157610620610545565b5b600061062f848285016105f6565b91505092915050565b6106418161056a565b82525050565b600060208201905061065c6000830184610638565b92915050565b60008115159050919050565b61067781610662565b82525050565b6000602082019050610692600083018461066e565b92915050565b600080604083850312156106af576106ae610545565b5b60006106bd85828601610593565b92505060206106ce858286016105f6565b9150509250929050565b600081519050919050565b600082825260208201905092915050565b6000819050602082019050919050565b61070d8161056a565b82525050565b600061071f8383610704565b60208301905092915050565b6000602082019050919050565b6000610743826106d8565b61074d81856106e3565b9350610758836106f4565b8060005b838110156107895781516107708882610713565b975061077b8361072b565b92505060018101905061075c565b5085935050505092915050565b600060208201905081810360008301526107b08184610738565b905092915050565b600082825260208201905092915050565b7f566f74657220697320616c726561647920726567697374657265642e00000000600082015250565b60006107ff601c836107b8565b915061080a826107c9565b602082019050919050565b6000602082019050818103600083015261082e816107f2565b9050919050565b61083e816105d5565b82525050565b6000606082019050610859600083018661066e565b6108666020830185610638565b6108736040830184610835565b949350505050565b600060ff82169050919050565b6108918161087b565b82525050565b600081519050919050565b600082825260208201905092915050565b6000819050602082019050919050565b6108cc816105d5565b82525050565b6040820160008201516108e860008501826108c3565b5060208201516108fb60208501826108c3565b50505050565b600061090d83836108d2565b60408301905092915050565b6000602082019050919050565b600061093182610897565b61093b81856108a2565b9350610946836108b3565b8060005b8381101561097757815161095e8882610901565b975061096983610919565b92505060018101905061094a565b5085935050505092915050565b600081519050919050565b600082825260208201905092915050565b60005b838110156109be5780820151818401526020810190506109a3565b60008484015250505050565b6000601f19601f8301169050919050565b60006109e682610984565b6109f0818561098f565b9350610a008185602086016109a0565b610a09816109ca565b840191505092915050565b600061010082019050610a2a600083018b61066e565b610a37602083018a610888565b610a446040830189610638565b610a516060830188610638565b610a5e6080830187610638565b610a6b60a0830186610835565b81810360c0830152610a7d8185610926565b905081810360e0830152610a9181846109db565b90509998505050505050505050565b610aa981610662565b8114610ab457600080fd5b50565b600081519050610ac681610aa0565b92915050565b600060208284031215610ae257610ae1610545565b5b6000610af084828501610ab7565b9150509291505056fea2646970667358221220125d7c00cae9f56be03acc7e2f255900937bb1b3f2f511ca8d8ecb337c9e806a64736f6c63430008180033",
  "linkReferences": {},
  "deployedLinkReferences": {}
}