{
  "_format": "hh-sol-artifact-1",
  "contractName": "VotingContract",
  "sourceName": "contracts/VotingContract.sol",
  "abi": [
    {
      "inputs": [
        {
          "internalType": "address",
          "name": "_voterRegistrationAddress",
          "type": "address"
        },
        {
          "internalType": "uint256[]",
          "name": "_candidateIds",
          "type": "uint256[]"
        }
      ],
      "stateMutability": "nonpayable",
      "type": "constructor"
    },
    {
      "inputs": [
        {
          "internalType": "uint256",
          "name": "_candidateId",
          "type": "uint256"
        }
      ],
      "name": "castVote",
      "outputs": [],
      "stateMutability": "payable",
      "type": "function"
    },
    {
      "inputs": [
        {
          "internalType": "uint256",
          "name": "_candidateId",
          "type": "uint256"
        }
      ],
      "name": "getValidCandidate",
      "outputs": [
        {
          "internalType": "bool",
          "name": "",
          "type": "bool"
        }
      ],
      "stateMutability": "view",
      "type": "function"
    },
    {
      "inputs": [
        {
          "internalType": "address",
          "name": "voter",
          "type": "address"
        }
      ],
      "name": "getVoterStatus",
      "outputs": [
        {
          "internalType": "bool",
          "name": "",
          "type": "bool"
        }
      ],
      "stateMutability": "view",
      "type": "function"
    },
    {
      "inputs": [
        {
          "internalType": "bool",
          "name": "isValid",
          "type": "bool"
        },
        {
          "internalType": "address",
          "name": "voter",
          "type": "address"
        },
        {
          "internalType": "uint256",
          "name": "candidateId",
          "type": "uint256"
        }
      ],
      "name": "handleCallback",
      "outputs": [],
      "stateMutability": "payable",
      "type": "function"
    },
    {
      "inputs": [
        {
          "internalType": "uint256",
          "name": "",
          "type": "uint256"
        }
      ],
      "name": "validCandidates",
      "outputs": [
        {
          "internalType": "bool",
          "name": "",
          "type": "bool"
        }
      ],
      "stateMutability": "view",
      "type": "function"
    },
    {
      "inputs": [
        {
          "internalType": "uint256",
          "name": "_candidateId",
          "type": "uint256"
        }
      ],
      "name": "viewResults",
      "outputs": [
        {
          "internalType": "uint256",
          "name": "",
          "type": "uint256"
        }
      ],
      "stateMutability": "view",
      "type": "function"
    },
    {
      "inputs": [],
      "name": "voterRegistrationAddress",
      "outputs": [
        {
          "internalType": "address",
          "name": "",
          "type": "address"
        }
      ],
      "stateMutability": "view",
      "type": "function"
    },
    {
      "inputs": [
        {
          "internalType": "address",
          "name": "",
          "type": "address"
        }
      ],
      "name": "voters",
      "outputs": [
        {
          "internalType": "bool",
          "name": "",
          "type": "bool"
        }
      ],
      "stateMutability": "view",
      "type": "function"
    },
    {
      "inputs": [
        {
          "internalType": "uint256",
          "name": "",
          "type": "uint256"
        }
      ],
      "name": "votes",
      "outputs": [
        {
          "internalType": "uint256",
          "name": "",
          "type": "uint256"
        }
      ],
      "stateMutability": "view",
      "type": "function"
    },
    {
      "stateMutability": "payable",
      "type": "receive"
    }
  ],
  "bytecode": "0x60806040523480156200001157600080fd5b5060405162000f8a38038062000f8a83398181016040528101906200003791906200032c565b816000806101000a81548173ffffffffffffffffffffffffffffffffffffffff021916908373ffffffffffffffffffffffffffffffffffffffff16021790555060005b8151811015620000fa5760008282815181106200009c576200009b62000392565b5b602002602001015190506000600160008381526020019081526020016000208190555060016002600083815260200190815260200160002060006101000a81548160ff0219169083151502179055505080806001019150506200007a565b505050620003c1565b6000604051905090565b600080fd5b600080fd5b600073ffffffffffffffffffffffffffffffffffffffff82169050919050565b6000620001448262000117565b9050919050565b620001568162000137565b81146200016257600080fd5b50565b60008151905062000176816200014b565b92915050565b600080fd5b6000601f19601f8301169050919050565b7f4e487b7100000000000000000000000000000000000000000000000000000000600052604160045260246000fd5b620001cc8262000181565b810181811067ffffffffffffffff82111715620001ee57620001ed62000192565b5b80604052505050565b60006200020362000103565b9050620002118282620001c1565b919050565b600067ffffffffffffffff82111562000234576200023362000192565b5b602082029050602081019050919050565b600080fd5b6000819050919050565b6200025f816200024a565b81146200026b57600080fd5b50565b6000815190506200027f8162000254565b92915050565b60006200029c620002968462000216565b620001f7565b90508083825260208201905060208402830185811115620002c257620002c162000245565b5b835b81811015620002ef5780620002da88826200026e565b845260208401935050602081019050620002c4565b5050509392505050565b600082601f8301126200031157620003106200017c565b5b81516200032384826020860162000285565b91505092915050565b600080604083850312156200034657620003456200010d565b5b6000620003568582860162000165565b925050602083015167ffffffffffffffff8111156200037a576200037962000112565b5b6200038885828601620002f9565b9150509250929050565b7f4e487b7100000000000000000000000000000000000000000000000000000000600052603260045260246000fd5b610bb980620003d16000396000f3fe60806040526004361061008a5760003560e01c806378e3ef201161005957806378e3ef20146101575780638fdc203f14610194578063a364eae4146101d1578063a3ec138d146101ed578063b0d188141461022a57610091565b80632161052f146100965780632bd87d49146100c15780633eb76b9c146100fe5780635df813301461011a57610091565b3661009157005b600080fd5b3480156100a257600080fd5b506100ab610267565b6040516100b8919061061e565b60405180910390f35b3480156100cd57600080fd5b506100e860048036038101906100e39190610674565b61028b565b6040516100f591906106b0565b60405180910390f35b61011860048036038101906101139190610674565b6102a8565b005b34801561012657600080fd5b50610141600480360381019061013c9190610674565b610379565b60405161014e91906106b0565b60405180910390f35b34801561016357600080fd5b5061017e600480360381019061017991906106f7565b610391565b60405161018b919061073f565b60405180910390f35b3480156101a057600080fd5b506101bb60048036038101906101b69190610674565b6103e7565b6040516101c8919061073f565b60405180910390f35b6101eb60048036038101906101e69190610786565b610411565b005b3480156101f957600080fd5b50610214600480360381019061020f91906106f7565b6104d7565b604051610221919061073f565b60405180910390f35b34801561023657600080fd5b50610251600480360381019061024c9190610674565b6104f7565b60405161025e919061073f565b60405180910390f35b60008054906101000a900473ffffffffffffffffffffffffffffffffffffffff1681565b600060016000838152602001908152602001600020549050919050565b600033826040516024016102bd9291906107d9565b6040516020818303038152906040527fb1b27e79000000000000000000000000000000000000000000000000000000007bffffffffffffffffffffffffffffffffffffffffffffffffffffffff19166020820180517bffffffffffffffffffffffffffffffffffffffffffffffffffffffff8381831617835250505050905061037460008054906101000a900473ffffffffffffffffffffffffffffffffffffffff163030624c4b40600360006298968088610517565b505050565b60016020528060005260406000206000915090505481565b6000600360008373ffffffffffffffffffffffffffffffffffffffff1673ffffffffffffffffffffffffffffffffffffffff16815260200190815260200160002060009054906101000a900460ff169050919050565b60006002600083815260200190815260200160002060009054906101000a900460ff169050919050565b82610451576040517f08c379a000000000000000000000000000000000000000000000000000000000815260040161044890610885565b60405180910390fd5b600160008281526020019081526020016000206000815480929190610475906108d4565b91905055506001600360008473ffffffffffffffffffffffffffffffffffffffff1673ffffffffffffffffffffffffffffffffffffffff16815260200190815260200160002060006101000a81548160ff021916908315150217905550505050565b60036020528060005260406000206000915054906101000a900460ff1681565b60026020528060005260406000206000915054906101000a900460ff1681565b6000606061052c8a8a8a8a8a8a8a888b61053b565b91505098975050505050505050565b60008060fd73ffffffffffffffffffffffffffffffffffffffff1663f1d1cf1c86888a8f8f8f8f8c8c6040518a63ffffffff1660e01b8152600401610587989796959493929190610ab5565b60206040518083038185885af11580156105a5573d6000803e3d6000fd5b50505050506040513d601f19601f820116820180604052508101906105ca9190610b56565b9050809150509998505050505050505050565b600073ffffffffffffffffffffffffffffffffffffffff82169050919050565b6000610608826105dd565b9050919050565b610618816105fd565b82525050565b6000602082019050610633600083018461060f565b92915050565b600080fd5b6000819050919050565b6106518161063e565b811461065c57600080fd5b50565b60008135905061066e81610648565b92915050565b60006020828403121561068a57610689610639565b5b60006106988482850161065f565b91505092915050565b6106aa8161063e565b82525050565b60006020820190506106c560008301846106a1565b92915050565b6106d4816105fd565b81146106df57600080fd5b50565b6000813590506106f1816106cb565b92915050565b60006020828403121561070d5761070c610639565b5b600061071b848285016106e2565b91505092915050565b60008115159050919050565b61073981610724565b82525050565b60006020820190506107546000830184610730565b92915050565b61076381610724565b811461076e57600080fd5b50565b6000813590506107808161075a565b92915050565b60008060006060848603121561079f5761079e610639565b5b60006107ad86828701610771565b93505060206107be868287016106e2565b92505060406107cf8682870161065f565b9150509250925092565b60006040820190506107ee600083018561060f565b6107fb60208301846106a1565b9392505050565b600082825260208201905092915050565b7f566f746572206973206e6f742072656769737465726564206f7220686173206160008201527f6c726561647920766f7465642e00000000000000000000000000000000000000602082015250565b600061086f602d83610802565b915061087a82610813565b604082019050919050565b6000602082019050818103600083015261089e81610862565b9050919050565b7f4e487b7100000000000000000000000000000000000000000000000000000000600052601160045260246000fd5b60006108df8261063e565b91507fffffffffffffffffffffffffffffffffffffffffffffffffffffffffffffffff8203610911576109106108a5565b5b600182019050919050565b600060ff82169050919050565b6109328161091c565b82525050565b600081519050919050565b600082825260208201905092915050565b6000819050602082019050919050565b61096d8161063e565b82525050565b6040820160008201516109896000850182610964565b50602082015161099c6020850182610964565b50505050565b60006109ae8383610973565b60408301905092915050565b6000602082019050919050565b60006109d282610938565b6109dc8185610943565b93506109e783610954565b8060005b83811015610a185781516109ff88826109a2565b9750610a0a836109ba565b9250506001810190506109eb565b5085935050505092915050565b600081519050919050565b600082825260208201905092915050565b60005b83811015610a5f578082015181840152602081019050610a44565b60008484015250505050565b6000601f19601f8301169050919050565b6000610a8782610a25565b610a918185610a30565b9350610aa1818560208601610a41565b610aaa81610a6b565b840191505092915050565b600061010082019050610acb600083018b610730565b610ad8602083018a610929565b610ae5604083018961060f565b610af2606083018861060f565b610aff608083018761060f565b610b0c60a08301866106a1565b81810360c0830152610b1e81856109c7565b905081810360e0830152610b328184610a7c565b90509998505050505050505050565b600081519050610b508161075a565b92915050565b600060208284031215610b6c57610b6b610639565b5b6000610b7a84828501610b41565b9150509291505056fea2646970667358221220911fae748b9025598fd194e09b682c38f6ee3d2cf3b8a346acc2cba90e3d844064736f6c63430008180033",
  "linkReferences": {},
  "deployedLinkReferences": {}
}